{
    "_format": "hh-sol-artifact-1",
    "contractName": "Domains",
    "sourceName": "contracts/Domains.sol",
    "abi": [
        {
            "inputs": [
                {
                    "internalType": "string",
                    "name": "_topLevelDomain",
                    "type": "string"
                }
            ],
            "stateMutability": "payable",
            "type": "constructor"
        },
        {
            "anonymous": false,
            "inputs": [
                {
                    "indexed": true,
                    "internalType": "address",
                    "name": "owner",
                    "type": "address"
                },
                {
                    "indexed": true,
                    "internalType": "address",
                    "name": "approved",
                    "type": "address"
                },
                {
                    "indexed": true,
                    "internalType": "uint256",
                    "name": "tokenId",
                    "type": "uint256"
                }
            ],
            "name": "Approval",
            "type": "event"
        },
        {
            "anonymous": false,
            "inputs": [
                {
                    "indexed": true,
                    "internalType": "address",
                    "name": "owner",
                    "type": "address"
                },
                {
                    "indexed": true,
                    "internalType": "address",
                    "name": "operator",
                    "type": "address"
                },
                {
                    "indexed": false,
                    "internalType": "bool",
                    "name": "approved",
                    "type": "bool"
                }
            ],
            "name": "ApprovalForAll",
            "type": "event"
        },
        {
            "anonymous": false,
            "inputs": [
                {
                    "indexed": true,
                    "internalType": "address",
                    "name": "from",
                    "type": "address"
                },
                {
                    "indexed": true,
                    "internalType": "address",
                    "name": "to",
                    "type": "address"
                },
                {
                    "indexed": true,
                    "internalType": "uint256",
                    "name": "tokenId",
                    "type": "uint256"
                }
            ],
            "name": "Transfer",
            "type": "event"
        },
        {
            "inputs": [
                {
                    "internalType": "address",
                    "name": "to",
                    "type": "address"
                },
                {
                    "internalType": "uint256",
                    "name": "tokenId",
                    "type": "uint256"
                }
            ],
            "name": "approve",
            "outputs": [],
            "stateMutability": "nonpayable",
            "type": "function"
        },
        {
            "inputs": [
                {
                    "internalType": "address",
                    "name": "owner",
                    "type": "address"
                }
            ],
            "name": "balanceOf",
            "outputs": [
                {
                    "internalType": "uint256",
                    "name": "",
                    "type": "uint256"
                }
            ],
            "stateMutability": "view",
            "type": "function"
        },
        {
            "inputs": [
                {
                    "internalType": "string",
                    "name": "",
                    "type": "string"
                }
            ],
            "name": "domains",
            "outputs": [
                {
                    "internalType": "address",
                    "name": "",
                    "type": "address"
                }
            ],
            "stateMutability": "view",
            "type": "function"
        },
        {
            "inputs": [
                {
                    "internalType": "string",
                    "name": "name",
                    "type": "string"
                }
            ],
            "name": "getAddress",
            "outputs": [
                {
                    "internalType": "address",
                    "name": "",
                    "type": "address"
                }
            ],
            "stateMutability": "view",
            "type": "function"
        },
        {
            "inputs": [
                {
                    "internalType": "uint256",
                    "name": "tokenId",
                    "type": "uint256"
                }
            ],
            "name": "getApproved",
            "outputs": [
                {
                    "internalType": "address",
                    "name": "",
                    "type": "address"
                }
            ],
            "stateMutability": "view",
            "type": "function"
        },
        {
            "inputs": [
                {
                    "internalType": "string",
                    "name": "name",
                    "type": "string"
                }
            ],
            "name": "getRecord",
            "outputs": [
                {
                    "internalType": "string",
                    "name": "",
                    "type": "string"
                }
            ],
            "stateMutability": "view",
            "type": "function"
        },
        {
            "inputs": [
                {
                    "internalType": "address",
                    "name": "owner",
                    "type": "address"
                },
                {
                    "internalType": "address",
                    "name": "operator",
                    "type": "address"
                }
            ],
            "name": "isApprovedForAll",
            "outputs": [
                {
                    "internalType": "bool",
                    "name": "",
                    "type": "bool"
                }
            ],
            "stateMutability": "view",
            "type": "function"
        },
        {
            "inputs": [],
            "name": "name",
            "outputs": [
                {
                    "internalType": "string",
                    "name": "",
                    "type": "string"
                }
            ],
            "stateMutability": "view",
            "type": "function"
        },
        {
            "inputs": [
                {
                    "internalType": "uint256",
                    "name": "tokenId",
                    "type": "uint256"
                }
            ],
            "name": "ownerOf",
            "outputs": [
                {
                    "internalType": "address",
                    "name": "",
                    "type": "address"
                }
            ],
            "stateMutability": "view",
            "type": "function"
        },
        {
            "inputs": [
                {
                    "internalType": "string",
                    "name": "name",
                    "type": "string"
                }
            ],
            "name": "price",
            "outputs": [
                {
                    "internalType": "uint256",
                    "name": "",
                    "type": "uint256"
                }
            ],
            "stateMutability": "pure",
            "type": "function"
        },
        {
            "inputs": [
                {
                    "internalType": "string",
                    "name": "",
                    "type": "string"
                }
            ],
            "name": "records",
            "outputs": [
                {
                    "internalType": "string",
                    "name": "",
                    "type": "string"
                }
            ],
            "stateMutability": "view",
            "type": "function"
        },
        {
            "inputs": [
                {
                    "internalType": "string",
                    "name": "name",
                    "type": "string"
                }
            ],
            "name": "registerAddress",
            "outputs": [],
            "stateMutability": "payable",
            "type": "function"
        },
        {
            "inputs": [
                {
                    "internalType": "address",
                    "name": "from",
                    "type": "address"
                },
                {
                    "internalType": "address",
                    "name": "to",
                    "type": "address"
                },
                {
                    "internalType": "uint256",
                    "name": "tokenId",
                    "type": "uint256"
                }
            ],
            "name": "safeTransferFrom",
            "outputs": [],
            "stateMutability": "nonpayable",
            "type": "function"
        },
        {
            "inputs": [
                {
                    "internalType": "address",
                    "name": "from",
                    "type": "address"
                },
                {
                    "internalType": "address",
                    "name": "to",
                    "type": "address"
                },
                {
                    "internalType": "uint256",
                    "name": "tokenId",
                    "type": "uint256"
                },
                {
                    "internalType": "bytes",
                    "name": "_data",
                    "type": "bytes"
                }
            ],
            "name": "safeTransferFrom",
            "outputs": [],
            "stateMutability": "nonpayable",
            "type": "function"
        },
        {
            "inputs": [
                {
                    "internalType": "address",
                    "name": "operator",
                    "type": "address"
                },
                {
                    "internalType": "bool",
                    "name": "approved",
                    "type": "bool"
                }
            ],
            "name": "setApprovalForAll",
            "outputs": [],
            "stateMutability": "nonpayable",
            "type": "function"
        },
        {
            "inputs": [
                {
                    "internalType": "string",
                    "name": "name",
                    "type": "string"
                },
                {
                    "internalType": "string",
                    "name": "record",
                    "type": "string"
                }
            ],
            "name": "setRecord",
            "outputs": [],
            "stateMutability": "nonpayable",
            "type": "function"
        },
        {
            "inputs": [
                {
                    "internalType": "bytes4",
                    "name": "interfaceId",
                    "type": "bytes4"
                }
            ],
            "name": "supportsInterface",
            "outputs": [
                {
                    "internalType": "bool",
                    "name": "",
                    "type": "bool"
                }
            ],
            "stateMutability": "view",
            "type": "function"
        },
        {
            "inputs": [],
            "name": "symbol",
            "outputs": [
                {
                    "internalType": "string",
                    "name": "",
                    "type": "string"
                }
            ],
            "stateMutability": "view",
            "type": "function"
        },
        {
            "inputs": [
                {
                    "internalType": "uint256",
                    "name": "tokenId",
                    "type": "uint256"
                }
            ],
            "name": "tokenURI",
            "outputs": [
                {
                    "internalType": "string",
                    "name": "",
                    "type": "string"
                }
            ],
            "stateMutability": "view",
            "type": "function"
        },
        {
            "inputs": [],
            "name": "topLevelDomain",
            "outputs": [
                {
                    "internalType": "string",
                    "name": "",
                    "type": "string"
                }
            ],
            "stateMutability": "view",
            "type": "function"
        },
        {
            "inputs": [
                {
                    "internalType": "address",
                    "name": "from",
                    "type": "address"
                },
                {
                    "internalType": "address",
                    "name": "to",
                    "type": "address"
                },
                {
                    "internalType": "uint256",
                    "name": "tokenId",
                    "type": "uint256"
                }
            ],
            "name": "transferFrom",
            "outputs": [],
            "stateMutability": "nonpayable",
            "type": "function"
        }
    ],
    "bytecode": "0x60806040526040518061030001604052806102cd815260200162004a486102cd9139600990805190602001906200003892919062000287565b506040518060400160405280600d81526020017f3c2f746578743e3c2f7376673e00000000000000000000000000000000000000815250600a90805190602001906200008692919062000287565b5060405162004d1538038062004d158339818101604052810190620000ac9190620004d4565b6040518060400160405280601481526020017f5665436861696e204e616d6520536572766963650000000000000000000000008152506040518060400160405280600481526020017f56654e530000000000000000000000000000000000000000000000000000000081525081600090805190602001906200013092919062000287565b5080600190805190602001906200014992919062000287565b50505080600890805190602001906200016492919062000287565b50620001b16040518060400160405280601881526020017f2573206e616d652073657276696365206465706c6f796564000000000000000081525082620001b860201b6200154b1760201c565b5062000622565b6200025a8282604051602401620001d192919062000582565b6040516020818303038152906040527f4b5c4277000000000000000000000000000000000000000000000000000000007bffffffffffffffffffffffffffffffffffffffffffffffffffffffff19166020820180517bffffffffffffffffffffffffffffffffffffffffffffffffffffffff83818316178352505050506200025e60201b60201c565b5050565b60008151905060006a636f6e736f6c652e6c6f679050602083016000808483855afa5050505050565b8280546200029590620005ec565b90600052602060002090601f016020900481019282620002b9576000855562000305565b82601f10620002d457805160ff191683800117855562000305565b8280016001018555821562000305579182015b8281111562000304578251825591602001919060010190620002e7565b5b50905062000314919062000318565b5090565b5b808211156200033357600081600090555060010162000319565b5090565b6000604051905090565b600080fd5b600080fd5b600080fd5b600080fd5b6000601f19601f8301169050919050565b7f4e487b7100000000000000000000000000000000000000000000000000000000600052604160045260246000fd5b620003a08262000355565b810181811067ffffffffffffffff82111715620003c257620003c162000366565b5b80604052505050565b6000620003d762000337565b9050620003e5828262000395565b919050565b600067ffffffffffffffff82111562000408576200040762000366565b5b620004138262000355565b9050602081019050919050565b60005b838110156200044057808201518184015260208101905062000423565b8381111562000450576000848401525b50505050565b60006200046d6200046784620003ea565b620003cb565b9050828152602081018484840111156200048c576200048b62000350565b5b6200049984828562000420565b509392505050565b600082601f830112620004b957620004b86200034b565b5b8151620004cb84826020860162000456565b91505092915050565b600060208284031215620004ed57620004ec62000341565b5b600082015167ffffffffffffffff8111156200050e576200050d62000346565b5b6200051c84828501620004a1565b91505092915050565b600081519050919050565b600082825260208201905092915050565b60006200054e8262000525565b6200055a818562000530565b93506200056c81856020860162000420565b620005778162000355565b840191505092915050565b600060408201905081810360008301526200059e818562000541565b90508181036020830152620005b4818462000541565b90509392505050565b7f4e487b7100000000000000000000000000000000000000000000000000000000600052602260045260246000fd5b600060028204905060018216806200060557607f821691505b602082108114156200061c576200061b620005bd565b5b50919050565b61441680620006326000396000f3fe60806040526004361061012a5760003560e01c80636352211e116100ab578063bb1bd28f1161006f578063bb1bd28f14610428578063bf40fac114610444578063c1880a9814610481578063c87b56dd146104aa578063e985e9c5146104e7578063fe2c6198146105245761012a565b80636352211e1461033157806370a082311461036e57806395d89b41146103ab578063a22cb465146103d6578063b88d4fde146103ff5761012a565b806323b872dd116100f257806323b872dd1461023a578063264492351461026357806342842e0e146102a057806352f21743146102c9578063541e771d146102f45761012a565b806301ffc9a71461012f57806306fdde031461016c578063081812fc14610197578063095ea7b3146101d457806311dd8845146101fd575b600080fd5b34801561013b57600080fd5b5061015660048036038101906101519190612a2d565b610561565b6040516101639190612a75565b60405180910390f35b34801561017857600080fd5b50610181610643565b60405161018e9190612b29565b60405180910390f35b3480156101a357600080fd5b506101be60048036038101906101b99190612b81565b6106d5565b6040516101cb9190612bef565b60405180910390f35b3480156101e057600080fd5b506101fb60048036038101906101f69190612c36565b61075a565b005b34801561020957600080fd5b50610224600480360381019061021f9190612cdb565b610872565b6040516102319190612b29565b60405180910390f35b34801561024657600080fd5b50610261600480360381019061025c9190612d28565b610925565b005b34801561026f57600080fd5b5061028a60048036038101906102859190612eab565b610985565b6040516102979190612bef565b60405180910390f35b3480156102ac57600080fd5b506102c760048036038101906102c29190612d28565b6109ce565b005b3480156102d557600080fd5b506102de6109ee565b6040516102eb9190612b29565b60405180910390f35b34801561030057600080fd5b5061031b60048036038101906103169190612eab565b610a7c565b6040516103289190612b29565b60405180910390f35b34801561033d57600080fd5b5061035860048036038101906103539190612b81565b610b32565b6040516103659190612bef565b60405180910390f35b34801561037a57600080fd5b5061039560048036038101906103909190612ef4565b610be4565b6040516103a29190612f30565b60405180910390f35b3480156103b757600080fd5b506103c0610c9c565b6040516103cd9190612b29565b60405180910390f35b3480156103e257600080fd5b506103fd60048036038101906103f89190612f77565b610d2e565b005b34801561040b57600080fd5b5061042660048036038101906104219190613058565b610d44565b005b610442600480360381019061043d9190612cdb565b610da6565b005b34801561045057600080fd5b5061046b60048036038101906104669190612cdb565b6111c6565b6040516104789190612bef565b60405180910390f35b34801561048d57600080fd5b506104a860048036038101906104a391906130db565b611211565b005b3480156104b657600080fd5b506104d160048036038101906104cc9190612b81565b6112bf565b6040516104de9190612b29565b60405180910390f35b3480156104f357600080fd5b5061050e6004803603810190610509919061315c565b611411565b60405161051b9190612a75565b60405180910390f35b34801561053057600080fd5b5061054b60048036038101906105469190612cdb565b6114a5565b6040516105589190612f30565b60405180910390f35b60007f80ac58cd000000000000000000000000000000000000000000000000000000007bffffffffffffffffffffffffffffffffffffffffffffffffffffffff1916827bffffffffffffffffffffffffffffffffffffffffffffffffffffffff1916148061062c57507f5b5e139f000000000000000000000000000000000000000000000000000000007bffffffffffffffffffffffffffffffffffffffffffffffffffffffff1916827bffffffffffffffffffffffffffffffffffffffffffffffffffffffff1916145b8061063c575061063b826115e7565b5b9050919050565b606060008054610652906131cb565b80601f016020809104026020016040519081016040528092919081815260200182805461067e906131cb565b80156106cb5780601f106106a0576101008083540402835291602001916106cb565b820191906000526020600020905b8154815290600101906020018083116106ae57829003601f168201915b5050505050905090565b60006106e082611651565b61071f576040517f08c379a00000000000000000000000000000000000000000000000000000000081526004016107169061326f565b60405180910390fd5b6004600083815260200190815260200160002060009054906101000a900473ffffffffffffffffffffffffffffffffffffffff169050919050565b600061076582610b32565b90508073ffffffffffffffffffffffffffffffffffffffff168373ffffffffffffffffffffffffffffffffffffffff1614156107d6576040517f08c379a00000000000000000000000000000000000000000000000000000000081526004016107cd90613301565b60405180910390fd5b8073ffffffffffffffffffffffffffffffffffffffff166107f56116bd565b73ffffffffffffffffffffffffffffffffffffffff16148061082457506108238161081e6116bd565b611411565b5b610863576040517f08c379a000000000000000000000000000000000000000000000000000000000815260040161085a90613393565b60405180910390fd5b61086d83836116c5565b505050565b6060600c83836040516108869291906133e3565b9081526020016040518091039020805461089f906131cb565b80601f01602080910402602001604051908101604052809291908181526020018280546108cb906131cb565b80156109185780601f106108ed57610100808354040283529160200191610918565b820191906000526020600020905b8154815290600101906020018083116108fb57829003601f168201915b5050505050905092915050565b6109366109306116bd565b8261177e565b610975576040517f08c379a000000000000000000000000000000000000000000000000000000000815260040161096c9061346e565b60405180910390fd5b61098083838361185c565b505050565b600b818051602081018201805184825260208301602085012081835280955050505050506000915054906101000a900473ffffffffffffffffffffffffffffffffffffffff1681565b6109e983838360405180602001604052806000815250610d44565b505050565b600880546109fb906131cb565b80601f0160208091040260200160405190810160405280929190818152602001828054610a27906131cb565b8015610a745780601f10610a4957610100808354040283529160200191610a74565b820191906000526020600020905b815481529060010190602001808311610a5757829003601f168201915b505050505081565b600c818051602081018201805184825260208301602085012081835280955050505050506000915090508054610ab1906131cb565b80601f0160208091040260200160405190810160405280929190818152602001828054610add906131cb565b8015610b2a5780601f10610aff57610100808354040283529160200191610b2a565b820191906000526020600020905b815481529060010190602001808311610b0d57829003601f168201915b505050505081565b6000806002600084815260200190815260200160002060009054906101000a900473ffffffffffffffffffffffffffffffffffffffff169050600073ffffffffffffffffffffffffffffffffffffffff168173ffffffffffffffffffffffffffffffffffffffff161415610bdb576040517f08c379a0000000000000000000000000000000000000000000000000000000008152600401610bd290613500565b60405180910390fd5b80915050919050565b60008073ffffffffffffffffffffffffffffffffffffffff168273ffffffffffffffffffffffffffffffffffffffff161415610c55576040517f08c379a0000000000000000000000000000000000000000000000000000000008152600401610c4c90613592565b60405180910390fd5b600360008373ffffffffffffffffffffffffffffffffffffffff1673ffffffffffffffffffffffffffffffffffffffff168152602001908152602001600020549050919050565b606060018054610cab906131cb565b80601f0160208091040260200160405190810160405280929190818152602001828054610cd7906131cb565b8015610d245780601f10610cf957610100808354040283529160200191610d24565b820191906000526020600020905b815481529060010190602001808311610d0757829003601f168201915b5050505050905090565b610d40610d396116bd565b8383611ac3565b5050565b610d55610d4f6116bd565b8361177e565b610d94576040517f08c379a0000000000000000000000000000000000000000000000000000000008152600401610d8b9061346e565b60405180910390fd5b610da084848484611c30565b50505050565b600073ffffffffffffffffffffffffffffffffffffffff16600b8383604051610dd09291906133e3565b908152602001604051809103902060009054906101000a900473ffffffffffffffffffffffffffffffffffffffff1673ffffffffffffffffffffffffffffffffffffffff1614610e1f57600080fd5b6000610e2b83836114a5565b905080341015610e70576040517f08c379a0000000000000000000000000000000000000000000000000000000008152600401610e67906135fe565b60405180910390fd5b600083836008604051602001610e88939291906136fe565b60405160208183030381529060405290506000600982600a604051602001610eb293929190613760565b60405160208183030381529060405290506000610ecf6007611c8c565b90506000610f2087878080601f016020809104026020016040519081016040528093929190818152602001838380828437600081840152601f19601f82011690508083019250505050505050611c9a565b90506000610f2d82611e4f565b90506110216040518060600160405280603181526020016143386031913989898080601f016020809104026020016040519081016040528093929190818152602001838380828437600081840152601f19601f8201169050808301925050505050505060088054610f9d906131cb565b80601f0160208091040260200160405190810160405280929190818152602001828054610fc9906131cb565b80156110165780601f10610feb57610100808354040283529160200191611016565b820191906000526020600020905b815481529060010190602001808311610ff957829003601f168201915b505050505086611fb0565b60006110578661103087612052565b846040516020016110439392919061390d565b604051602081830303815290604052612052565b905060008160405160200161106c91906139b6565b604051602081830303815290604052905061109e604051806060016040528060388152602001614369603891396121ea565b6110dd6040518060400160405280600d81526020017f46696e616c20746f6b65555249000000000000000000000000000000000000008152508261154b565b6110fe6040518060600160405280603981526020016142ff603991396121ea565b6111083386612283565b61111285826122a1565b33600b8b8b6040516111259291906133e3565b908152602001604051809103902060006101000a81548173ffffffffffffffffffffffffffffffffffffffff021916908373ffffffffffffffffffffffffffffffffffffffff16021790555061117b6007612315565b6111ba6040518060400160405280601b81526020017f2573206861732072656769737465726564206120646f6d61696e2100000000008152503361232b565b50505050505050505050565b6000600b83836040516111da9291906133e3565b908152602001604051809103902060009054906101000a900473ffffffffffffffffffffffffffffffffffffffff16905092915050565b3373ffffffffffffffffffffffffffffffffffffffff16600b858560405161123a9291906133e3565b908152602001604051809103902060009054906101000a900473ffffffffffffffffffffffffffffffffffffffff1673ffffffffffffffffffffffffffffffffffffffff161461128957600080fd5b8181600c868660405161129d9291906133e3565b908152602001604051809103902091906112b8929190612898565b5050505050565b60606112ca82611651565b611309576040517f08c379a000000000000000000000000000000000000000000000000000000000815260040161130090613a4a565b60405180910390fd5b6000600660008481526020019081526020016000208054611329906131cb565b80601f0160208091040260200160405190810160405280929190818152602001828054611355906131cb565b80156113a25780601f10611377576101008083540402835291602001916113a2565b820191906000526020600020905b81548152906001019060200180831161138557829003601f168201915b5050505050905060006113b36123c7565b90506000815114156113c957819250505061140c565b6000825111156113fe5780826040516020016113e6929190613a6a565b6040516020818303038152906040529250505061140c565b611407846123de565b925050505b919050565b6000600560008473ffffffffffffffffffffffffffffffffffffffff1673ffffffffffffffffffffffffffffffffffffffff16815260200190815260200160002060008373ffffffffffffffffffffffffffffffffffffffff1673ffffffffffffffffffffffffffffffffffffffff16815260200190815260200160002060009054906101000a900460ff16905092915050565b6000806114f584848080601f016020809104026020016040519081016040528093929190818152602001838380828437600081840152601f19601f82011690508083019250505050505050611c9a565b90506000811161150457600080fd5b600381141561151e576706f05b59d3b20000915050611545565b600481141561153857670429d069189e0000915050611545565b67016345785d8a00009150505b92915050565b6115e38282604051602401611561929190613a8e565b6040516020818303038152906040527f4b5c4277000000000000000000000000000000000000000000000000000000007bffffffffffffffffffffffffffffffffffffffffffffffffffffffff19166020820180517bffffffffffffffffffffffffffffffffffffffffffffffffffffffff8381831617835250505050612485565b5050565b60007f01ffc9a7000000000000000000000000000000000000000000000000000000007bffffffffffffffffffffffffffffffffffffffffffffffffffffffff1916827bffffffffffffffffffffffffffffffffffffffffffffffffffffffff1916149050919050565b60008073ffffffffffffffffffffffffffffffffffffffff166002600084815260200190815260200160002060009054906101000a900473ffffffffffffffffffffffffffffffffffffffff1673ffffffffffffffffffffffffffffffffffffffff1614159050919050565b600033905090565b816004600083815260200190815260200160002060006101000a81548173ffffffffffffffffffffffffffffffffffffffff021916908373ffffffffffffffffffffffffffffffffffffffff160217905550808273ffffffffffffffffffffffffffffffffffffffff1661173883610b32565b73ffffffffffffffffffffffffffffffffffffffff167f8c5be1e5ebec7d5bd14f71427d1e84f3dd0314c0f7b2291e5b200ac8c7c3b92560405160405180910390a45050565b600061178982611651565b6117c8576040517f08c379a00000000000000000000000000000000000000000000000000000000081526004016117bf90613b37565b60405180910390fd5b60006117d383610b32565b90508073ffffffffffffffffffffffffffffffffffffffff168473ffffffffffffffffffffffffffffffffffffffff16148061184257508373ffffffffffffffffffffffffffffffffffffffff1661182a846106d5565b73ffffffffffffffffffffffffffffffffffffffff16145b8061185357506118528185611411565b5b91505092915050565b8273ffffffffffffffffffffffffffffffffffffffff1661187c82610b32565b73ffffffffffffffffffffffffffffffffffffffff16146118d2576040517f08c379a00000000000000000000000000000000000000000000000000000000081526004016118c990613bc9565b60405180910390fd5b600073ffffffffffffffffffffffffffffffffffffffff168273ffffffffffffffffffffffffffffffffffffffff161415611942576040517f08c379a000000000000000000000000000000000000000000000000000000000815260040161193990613c5b565b60405180910390fd5b61194d8383836124ae565b6119586000826116c5565b6001600360008573ffffffffffffffffffffffffffffffffffffffff1673ffffffffffffffffffffffffffffffffffffffff16815260200190815260200160002060008282546119a89190613caa565b925050819055506001600360008473ffffffffffffffffffffffffffffffffffffffff1673ffffffffffffffffffffffffffffffffffffffff16815260200190815260200160002060008282546119ff9190613cde565b92505081905550816002600083815260200190815260200160002060006101000a81548173ffffffffffffffffffffffffffffffffffffffff021916908373ffffffffffffffffffffffffffffffffffffffff160217905550808273ffffffffffffffffffffffffffffffffffffffff168473ffffffffffffffffffffffffffffffffffffffff167fddf252ad1be2c89b69c2b068fc378daa952ba7f163c4a11628f55a4df523b3ef60405160405180910390a4611abe8383836124b3565b505050565b8173ffffffffffffffffffffffffffffffffffffffff168373ffffffffffffffffffffffffffffffffffffffff161415611b32576040517f08c379a0000000000000000000000000000000000000000000000000000000008152600401611b2990613d80565b60405180910390fd5b80600560008573ffffffffffffffffffffffffffffffffffffffff1673ffffffffffffffffffffffffffffffffffffffff16815260200190815260200160002060008473ffffffffffffffffffffffffffffffffffffffff1673ffffffffffffffffffffffffffffffffffffffff16815260200190815260200160002060006101000a81548160ff0219169083151502179055508173ffffffffffffffffffffffffffffffffffffffff168373ffffffffffffffffffffffffffffffffffffffff167f17307eab39ab6107e8899845ad3d59bd9653f200f220920489ca2b5937696c3183604051611c239190612a75565b60405180910390a3505050565b611c3b84848461185c565b611c47848484846124b8565b611c86576040517f08c379a0000000000000000000000000000000000000000000000000000000008152600401611c7d90613e12565b60405180910390fd5b50505050565b600081600001549050919050565b60008060008084519050600092505b80821015611e44576000858381518110611cc657611cc5613e32565b5b602001015160f81c60f81b9050608060f81b817effffffffffffffffffffffffffffffffffffffffffffffffffffffffffffff19161015611d1557600183611d0e9190613cde565b9250611e30565b60e060f81b817effffffffffffffffffffffffffffffffffffffffffffffffffffffffffffff19161015611d5757600283611d509190613cde565b9250611e2f565b60f060f81b817effffffffffffffffffffffffffffffffffffffffffffffffffffffffffffff19161015611d9957600383611d929190613cde565b9250611e2e565b60f8801b817effffffffffffffffffffffffffffffffffffffffffffffffffffffffffffff19161015611dda57600483611dd39190613cde565b9250611e2d565b60fc60f81b817effffffffffffffffffffffffffffffffffffffffffffffffffffffffffffff19161015611e1c57600583611e159190613cde565b9250611e2c565b600683611e299190613cde565b92505b5b5b5b5b508280611e3c90613e61565b935050611ca9565b829350505050919050565b60606000821415611e97576040518060400160405280600181526020017f30000000000000000000000000000000000000000000000000000000000000008152509050611fab565b600082905060005b60008214611ec9578080611eb290613e61565b915050600a82611ec29190613ed9565b9150611e9f565b60008167ffffffffffffffff811115611ee557611ee4612d80565b5b6040519080825280601f01601f191660200182016040528015611f175781602001600182028036833780820191505090505b5090505b60008514611fa457600182611f309190613caa565b9150600a85611f3f9190613f0a565b6030611f4b9190613cde565b60f81b818381518110611f6157611f60613e32565b5b60200101907effffffffffffffffffffffffffffffffffffffffffffffffffffffffffffff1916908160001a905350600a85611f9d9190613ed9565b9450611f1b565b8093505050505b919050565b61204c84848484604051602401611fca9493929190613f3b565b6040516020818303038152906040527f9fd009f5000000000000000000000000000000000000000000000000000000007bffffffffffffffffffffffffffffffffffffffffffffffffffffffff19166020820180517bffffffffffffffffffffffffffffffffffffffffffffffffffffffff8381831617835250505050612485565b50505050565b6060600082519050600081141561207b57604051806020016040528060008152509150506121e5565b6000600360028361208c9190613cde565b6120969190613ed9565b60046120a29190613f95565b905060006020826120b39190613cde565b67ffffffffffffffff8111156120cc576120cb612d80565b5b6040519080825280601f01601f1916602001820160405280156120fe5781602001600182028036833780820191505090505b50905060006040518060600160405280604081526020016143a1604091399050600181016020830160005b868110156121a25760038101905062ffffff818a015116603f8160121c168401518060081b905060ff603f83600c1c1686015116810190508060081b905060ff603f8360061c1686015116810190508060081b905060ff603f831686015116810190508060e01b90508084526004840193505050612129565b5060038606600181146121bc57600281146121cc576121d7565b613d3d60f01b60028303526121d7565b603d60f81b60018303525b508484525050819450505050505b919050565b612280816040516024016121fe9190612b29565b6040516020818303038152906040527f41304fac000000000000000000000000000000000000000000000000000000007bffffffffffffffffffffffffffffffffffffffffffffffffffffffff19166020820180517bffffffffffffffffffffffffffffffffffffffffffffffffffffffff8381831617835250505050612485565b50565b61229d828260405180602001604052806000815250612640565b5050565b6122aa82611651565b6122e9576040517f08c379a00000000000000000000000000000000000000000000000000000000081526004016122e090614061565b60405180910390fd5b8060066000848152602001908152602001600020908051906020019061231092919061291e565b505050565b6001816000016000828254019250508190555050565b6123c38282604051602401612341929190614081565b6040516020818303038152906040527f319af333000000000000000000000000000000000000000000000000000000007bffffffffffffffffffffffffffffffffffffffffffffffffffffffff19166020820180517bffffffffffffffffffffffffffffffffffffffffffffffffffffffff8381831617835250505050612485565b5050565b606060405180602001604052806000815250905090565b60606123e982611651565b612428576040517f08c379a000000000000000000000000000000000000000000000000000000000815260040161241f90614123565b60405180910390fd5b60006124326123c7565b90506000815111612452576040518060200160405280600081525061247d565b8061245c84611e4f565b60405160200161246d929190613a6a565b6040516020818303038152906040525b915050919050565b60008151905060006a636f6e736f6c652e6c6f679050602083016000808483855afa5050505050565b505050565b505050565b60006124d98473ffffffffffffffffffffffffffffffffffffffff1661269b565b15612633578373ffffffffffffffffffffffffffffffffffffffff1663150b7a026125026116bd565b8786866040518563ffffffff1660e01b81526004016125249493929190614198565b6020604051808303816000875af192505050801561256057506040513d601f19601f8201168201806040525081019061255d91906141f9565b60015b6125e3573d8060008114612590576040519150601f19603f3d011682016040523d82523d6000602084013e612595565b606091505b506000815114156125db576040517f08c379a00000000000000000000000000000000000000000000000000000000081526004016125d290613e12565b60405180910390fd5b805181602001fd5b63150b7a0260e01b7bffffffffffffffffffffffffffffffffffffffffffffffffffffffff1916817bffffffffffffffffffffffffffffffffffffffffffffffffffffffff191614915050612638565b600190505b949350505050565b61264a83836126be565b61265760008484846124b8565b612696576040517f08c379a000000000000000000000000000000000000000000000000000000000815260040161268d90613e12565b60405180910390fd5b505050565b6000808273ffffffffffffffffffffffffffffffffffffffff163b119050919050565b600073ffffffffffffffffffffffffffffffffffffffff168273ffffffffffffffffffffffffffffffffffffffff16141561272e576040517f08c379a000000000000000000000000000000000000000000000000000000000815260040161272590614272565b60405180910390fd5b61273781611651565b15612777576040517f08c379a000000000000000000000000000000000000000000000000000000000815260040161276e906142de565b60405180910390fd5b612783600083836124ae565b6001600360008473ffffffffffffffffffffffffffffffffffffffff1673ffffffffffffffffffffffffffffffffffffffff16815260200190815260200160002060008282546127d39190613cde565b92505081905550816002600083815260200190815260200160002060006101000a81548173ffffffffffffffffffffffffffffffffffffffff021916908373ffffffffffffffffffffffffffffffffffffffff160217905550808273ffffffffffffffffffffffffffffffffffffffff16600073ffffffffffffffffffffffffffffffffffffffff167fddf252ad1be2c89b69c2b068fc378daa952ba7f163c4a11628f55a4df523b3ef60405160405180910390a4612894600083836124b3565b5050565b8280546128a4906131cb565b90600052602060002090601f0160209004810192826128c6576000855561290d565b82601f106128df57803560ff191683800117855561290d565b8280016001018555821561290d579182015b8281111561290c5782358255916020019190600101906128f1565b5b50905061291a91906129a4565b5090565b82805461292a906131cb565b90600052602060002090601f01602090048101928261294c5760008555612993565b82601f1061296557805160ff1916838001178555612993565b82800160010185558215612993579182015b82811115612992578251825591602001919060010190612977565b5b5090506129a091906129a4565b5090565b5b808211156129bd5760008160009055506001016129a5565b5090565b6000604051905090565b600080fd5b600080fd5b60007fffffffff0000000000000000000000000000000000000000000000000000000082169050919050565b612a0a816129d5565b8114612a1557600080fd5b50565b600081359050612a2781612a01565b92915050565b600060208284031215612a4357612a426129cb565b5b6000612a5184828501612a18565b91505092915050565b60008115159050919050565b612a6f81612a5a565b82525050565b6000602082019050612a8a6000830184612a66565b92915050565b600081519050919050565b600082825260208201905092915050565b60005b83811015612aca578082015181840152602081019050612aaf565b83811115612ad9576000848401525b50505050565b6000601f19601f8301169050919050565b6000612afb82612a90565b612b058185612a9b565b9350612b15818560208601612aac565b612b1e81612adf565b840191505092915050565b60006020820190508181036000830152612b438184612af0565b905092915050565b6000819050919050565b612b5e81612b4b565b8114612b6957600080fd5b50565b600081359050612b7b81612b55565b92915050565b600060208284031215612b9757612b966129cb565b5b6000612ba584828501612b6c565b91505092915050565b600073ffffffffffffffffffffffffffffffffffffffff82169050919050565b6000612bd982612bae565b9050919050565b612be981612bce565b82525050565b6000602082019050612c046000830184612be0565b92915050565b612c1381612bce565b8114612c1e57600080fd5b50565b600081359050612c3081612c0a565b92915050565b60008060408385031215612c4d57612c4c6129cb565b5b6000612c5b85828601612c21565b9250506020612c6c85828601612b6c565b9150509250929050565b600080fd5b600080fd5b600080fd5b60008083601f840112612c9b57612c9a612c76565b5b8235905067ffffffffffffffff811115612cb857612cb7612c7b565b5b602083019150836001820283011115612cd457612cd3612c80565b5b9250929050565b60008060208385031215612cf257612cf16129cb565b5b600083013567ffffffffffffffff811115612d1057612d0f6129d0565b5b612d1c85828601612c85565b92509250509250929050565b600080600060608486031215612d4157612d406129cb565b5b6000612d4f86828701612c21565b9350506020612d6086828701612c21565b9250506040612d7186828701612b6c565b9150509250925092565b600080fd5b7f4e487b7100000000000000000000000000000000000000000000000000000000600052604160045260246000fd5b612db882612adf565b810181811067ffffffffffffffff82111715612dd757612dd6612d80565b5b80604052505050565b6000612dea6129c1565b9050612df68282612daf565b919050565b600067ffffffffffffffff821115612e1657612e15612d80565b5b612e1f82612adf565b9050602081019050919050565b82818337600083830152505050565b6000612e4e612e4984612dfb565b612de0565b905082815260208101848484011115612e6a57612e69612d7b565b5b612e75848285612e2c565b509392505050565b600082601f830112612e9257612e91612c76565b5b8135612ea2848260208601612e3b565b91505092915050565b600060208284031215612ec157612ec06129cb565b5b600082013567ffffffffffffffff811115612edf57612ede6129d0565b5b612eeb84828501612e7d565b91505092915050565b600060208284031215612f0a57612f096129cb565b5b6000612f1884828501612c21565b91505092915050565b612f2a81612b4b565b82525050565b6000602082019050612f456000830184612f21565b92915050565b612f5481612a5a565b8114612f5f57600080fd5b50565b600081359050612f7181612f4b565b92915050565b60008060408385031215612f8e57612f8d6129cb565b5b6000612f9c85828601612c21565b9250506020612fad85828601612f62565b9150509250929050565b600067ffffffffffffffff821115612fd257612fd1612d80565b5b612fdb82612adf565b9050602081019050919050565b6000612ffb612ff684612fb7565b612de0565b90508281526020810184848401111561301757613016612d7b565b5b613022848285612e2c565b509392505050565b600082601f83011261303f5761303e612c76565b5b813561304f848260208601612fe8565b91505092915050565b60008060008060808587031215613072576130716129cb565b5b600061308087828801612c21565b945050602061309187828801612c21565b93505060406130a287828801612b6c565b925050606085013567ffffffffffffffff8111156130c3576130c26129d0565b5b6130cf8782880161302a565b91505092959194509250565b600080600080604085870312156130f5576130f46129cb565b5b600085013567ffffffffffffffff811115613113576131126129d0565b5b61311f87828801612c85565b9450945050602085013567ffffffffffffffff811115613142576131416129d0565b5b61314e87828801612c85565b925092505092959194509250565b60008060408385031215613173576131726129cb565b5b600061318185828601612c21565b925050602061319285828601612c21565b9150509250929050565b7f4e487b7100000000000000000000000000000000000000000000000000000000600052602260045260246000fd5b600060028204905060018216806131e357607f821691505b602082108114156131f7576131f661319c565b5b50919050565b7f4552433732313a20617070726f76656420717565727920666f72206e6f6e657860008201527f697374656e7420746f6b656e0000000000000000000000000000000000000000602082015250565b6000613259602c83612a9b565b9150613264826131fd565b604082019050919050565b600060208201905081810360008301526132888161324c565b9050919050565b7f4552433732313a20617070726f76616c20746f2063757272656e74206f776e6560008201527f7200000000000000000000000000000000000000000000000000000000000000602082015250565b60006132eb602183612a9b565b91506132f68261328f565b604082019050919050565b6000602082019050818103600083015261331a816132de565b9050919050565b7f4552433732313a20617070726f76652063616c6c6572206973206e6f74206f7760008201527f6e6572206e6f7220617070726f76656420666f7220616c6c0000000000000000602082015250565b600061337d603883612a9b565b915061338882613321565b604082019050919050565b600060208201905081810360008301526133ac81613370565b9050919050565b600081905092915050565b60006133ca83856133b3565b93506133d7838584612e2c565b82840190509392505050565b60006133f08284866133be565b91508190509392505050565b7f4552433732313a207472616e736665722063616c6c6572206973206e6f74206f60008201527f776e6572206e6f7220617070726f766564000000000000000000000000000000602082015250565b6000613458603183612a9b565b9150613463826133fc565b604082019050919050565b600060208201905081810360008301526134878161344b565b9050919050565b7f4552433732313a206f776e657220717565727920666f72206e6f6e657869737460008201527f656e7420746f6b656e0000000000000000000000000000000000000000000000602082015250565b60006134ea602983612a9b565b91506134f58261348e565b604082019050919050565b60006020820190508181036000830152613519816134dd565b9050919050565b7f4552433732313a2062616c616e636520717565727920666f7220746865207a6560008201527f726f206164647265737300000000000000000000000000000000000000000000602082015250565b600061357c602a83612a9b565b915061358782613520565b604082019050919050565b600060208201905081810360008301526135ab8161356f565b9050919050565b7f4e6f7420656e6f756768206d6174696300000000000000000000000000000000600082015250565b60006135e8601083612a9b565b91506135f3826135b2565b602082019050919050565b60006020820190508181036000830152613617816135db565b9050919050565b7f2e00000000000000000000000000000000000000000000000000000000000000600082015250565b60006136546001836133b3565b915061365f8261361e565b600182019050919050565b60008190508160005260206000209050919050565b6000815461368c816131cb565b61369681866133b3565b945060018216600081146136b157600181146136c2576136f5565b60ff198316865281860193506136f5565b6136cb8561366a565b60005b838110156136ed578154818901526001820191506020810190506136ce565b838801955050505b50505092915050565b600061370b8285876133be565b915061371682613647565b9150613722828461367f565b9150819050949350505050565b600061373a82612a90565b61374481856133b3565b9350613754818560208601612aac565b80840191505092915050565b600061376c828661367f565b9150613778828561372f565b9150613784828461367f565b9150819050949350505050565b7f7b226e616d65223a202200000000000000000000000000000000000000000000600082015250565b60006137c7600a836133b3565b91506137d282613791565b600a82019050919050565b7f222c20226465736372697074696f6e223a20224120646f6d61696e206f6e207460008201527f6865204e696e6a61206e616d652073657276696365222c2022696d616765223a60208201527f2022646174613a696d6167652f7376672b786d6c3b6261736536342c00000000604082015250565b600061385f605c836133b3565b915061386a826137dd565b605c82019050919050565b7f222c226c656e677468223a220000000000000000000000000000000000000000600082015250565b60006138ab600c836133b3565b91506138b682613875565b600c82019050919050565b7f227d000000000000000000000000000000000000000000000000000000000000600082015250565b60006138f76002836133b3565b9150613902826138c1565b600282019050919050565b6000613918826137ba565b9150613924828661372f565b915061392f82613852565b915061393b828561372f565b91506139468261389e565b9150613952828461372f565b915061395d826138ea565b9150819050949350505050565b7f646174613a6170706c69636174696f6e2f6a736f6e3b6261736536342c000000600082015250565b60006139a0601d836133b3565b91506139ab8261396a565b601d82019050919050565b60006139c182613993565b91506139cd828461372f565b915081905092915050565b7f45524337323155524953746f726167653a2055524920717565727920666f722060008201527f6e6f6e6578697374656e7420746f6b656e000000000000000000000000000000602082015250565b6000613a34603183612a9b565b9150613a3f826139d8565b604082019050919050565b60006020820190508181036000830152613a6381613a27565b9050919050565b6000613a76828561372f565b9150613a82828461372f565b91508190509392505050565b60006040820190508181036000830152613aa88185612af0565b90508181036020830152613abc8184612af0565b90509392505050565b7f4552433732313a206f70657261746f7220717565727920666f72206e6f6e657860008201527f697374656e7420746f6b656e0000000000000000000000000000000000000000602082015250565b6000613b21602c83612a9b565b9150613b2c82613ac5565b604082019050919050565b60006020820190508181036000830152613b5081613b14565b9050919050565b7f4552433732313a207472616e736665722066726f6d20696e636f72726563742060008201527f6f776e6572000000000000000000000000000000000000000000000000000000602082015250565b6000613bb3602583612a9b565b9150613bbe82613b57565b604082019050919050565b60006020820190508181036000830152613be281613ba6565b9050919050565b7f4552433732313a207472616e7366657220746f20746865207a65726f2061646460008201527f7265737300000000000000000000000000000000000000000000000000000000602082015250565b6000613c45602483612a9b565b9150613c5082613be9565b604082019050919050565b60006020820190508181036000830152613c7481613c38565b9050919050565b7f4e487b7100000000000000000000000000000000000000000000000000000000600052601160045260246000fd5b6000613cb582612b4b565b9150613cc083612b4b565b925082821015613cd357613cd2613c7b565b5b828203905092915050565b6000613ce982612b4b565b9150613cf483612b4b565b9250827fffffffffffffffffffffffffffffffffffffffffffffffffffffffffffffffff03821115613d2957613d28613c7b565b5b828201905092915050565b7f4552433732313a20617070726f766520746f2063616c6c657200000000000000600082015250565b6000613d6a601983612a9b565b9150613d7582613d34565b602082019050919050565b60006020820190508181036000830152613d9981613d5d565b9050919050565b7f4552433732313a207472616e7366657220746f206e6f6e20455243373231526560008201527f63656976657220696d706c656d656e7465720000000000000000000000000000602082015250565b6000613dfc603283612a9b565b9150613e0782613da0565b604082019050919050565b60006020820190508181036000830152613e2b81613def565b9050919050565b7f4e487b7100000000000000000000000000000000000000000000000000000000600052603260045260246000fd5b6000613e6c82612b4b565b91507fffffffffffffffffffffffffffffffffffffffffffffffffffffffffffffffff821415613e9f57613e9e613c7b565b5b600182019050919050565b7f4e487b7100000000000000000000000000000000000000000000000000000000600052601260045260246000fd5b6000613ee482612b4b565b9150613eef83612b4b565b925082613eff57613efe613eaa565b5b828204905092915050565b6000613f1582612b4b565b9150613f2083612b4b565b925082613f3057613f2f613eaa565b5b828206905092915050565b60006080820190508181036000830152613f558187612af0565b90508181036020830152613f698186612af0565b90508181036040830152613f7d8185612af0565b9050613f8c6060830184612f21565b95945050505050565b6000613fa082612b4b565b9150613fab83612b4b565b9250817fffffffffffffffffffffffffffffffffffffffffffffffffffffffffffffffff0483118215151615613fe457613fe3613c7b565b5b828202905092915050565b7f45524337323155524953746f726167653a2055524920736574206f66206e6f6e60008201527f6578697374656e7420746f6b656e000000000000000000000000000000000000602082015250565b600061404b602e83612a9b565b915061405682613fef565b604082019050919050565b6000602082019050818103600083015261407a8161403e565b9050919050565b6000604082019050818103600083015261409b8185612af0565b90506140aa6020830184612be0565b9392505050565b7f4552433732314d657461646174613a2055524920717565727920666f72206e6f60008201527f6e6578697374656e7420746f6b656e0000000000000000000000000000000000602082015250565b600061410d602f83612a9b565b9150614118826140b1565b604082019050919050565b6000602082019050818103600083015261413c81614100565b9050919050565b600081519050919050565b600082825260208201905092915050565b600061416a82614143565b614174818561414e565b9350614184818560208601612aac565b61418d81612adf565b840191505092915050565b60006080820190506141ad6000830187612be0565b6141ba6020830186612be0565b6141c76040830185612f21565b81810360608301526141d9818461415f565b905095945050505050565b6000815190506141f381612a01565b92915050565b60006020828403121561420f5761420e6129cb565b5b600061421d848285016141e4565b91505092915050565b7f4552433732313a206d696e7420746f20746865207a65726f2061646472657373600082015250565b600061425c602083612a9b565b915061426782614226565b602082019050919050565b6000602082019050818103600083015261428b8161424f565b9050919050565b7f4552433732313a20746f6b656e20616c7265616479206d696e74656400000000600082015250565b60006142c8601c83612a9b565b91506142d382614292565b602082019050919050565b600060208201905081810360008301526142f7816142bb565b905091905056fe2d2d2d2d2d2d2d2d2d2d2d2d2d2d2d2d2d2d2d2d2d2d2d2d2d2d2d2d2d2d2d2d2d2d2d2d2d2d2d2d2d2d2d2d2d2d2d2d2d2d2d2d2d2d2d2d2d5265676973746572696e672025732e2573206f6e2074686520636f6e7472616374207769746820746f6b656e49442025640a2d2d2d2d2d2d2d2d2d2d2d2d2d2d2d2d2d2d2d2d2d2d2d2d2d2d2d2d2d2d2d2d2d2d2d2d2d2d2d2d2d2d2d2d2d2d2d2d2d2d2d2d2d2d2d4142434445464748494a4b4c4d4e4f505152535455565758595a6162636465666768696a6b6c6d6e6f707172737475767778797a303132333435363738392b2fa264697066735822122084fd4c6bb6156a65a1d70d2cef21242e7e443b30362c1bf316058e65d8dd157c64736f6c634300080a00333c73766720786d6c6e733d22687474703a2f2f7777772e77332e6f72672f323030302f737667222077696474683d2232373022206865696768743d22323730222066696c6c3d226e6f6e65223e3c706174682066696c6c3d2275726c282342292220643d224d302030683237307632373048307a222f3e3c646566733e3c66696c7465722069643d22412220636f6c6f722d696e746572706f6c6174696f6e2d66696c746572733d2273524742222066696c746572556e6974733d227573657253706163654f6e55736522206865696768743d22323730222077696474683d22323730223e3c666544726f70536861646f772064783d2230222064793d22312220737464446576696174696f6e3d22322220666c6f6f642d6f7061636974793d222e323235222077696474683d223230302522206865696768743d2232303025222f3e3c2f66696c7465723e3c2f646566733e3c646566733e3c6c696e6561724772616469656e742069643d2242222078313d2230222079313d2230222078323d22323730222079323d2232373022206772616469656e74556e6974733d227573657253706163654f6e557365223e3c73746f702073746f702d636f6c6f723d2223636235656565222f3e3c73746f70206f66667365743d2231222073746f702d636f6c6f723d2223306364376534222073746f702d6f7061636974793d222e3939222f3e3c2f6c696e6561724772616469656e743e3c2f646566733e3c7465787420783d2233322e352220793d223233312220666f6e742d73697a653d223237222066696c6c3d2223666666222066696c7465723d2275726c282341292220666f6e742d66616d696c793d22506c7573204a616b617274612053616e732c44656a6156752053616e732c4e6f746f20436f6c6f7220456d6f6a692c4170706c6520436f6c6f7220456d6f6a692c73616e732d73657269662220666f6e742d7765696768743d22626f6c64223e",
    "linkReferences": {},
    "deployedLinkReferences": {}
}